{
    "_format": "hh-sol-artifact-1",
    "contractName": "EnovateToken",
    "sourceName": "contracts/EnovateToken.sol",
    "abi": [
        {
            "inputs": [
                {
                    "internalType": "string",
                    "name": "_name",
                    "type": "string"
                },
                {
                    "internalType": "string",
                    "name": "_symbol",
                    "type": "string"
                },
                {
                    "internalType": "uint256",
                    "name": "_totalSupply",
                    "type": "uint256"
                }
            ],
            "stateMutability": "nonpayable",
            "type": "constructor"
        },
        {
            "anonymous": false,
            "inputs": [
                {
                    "indexed": true,
                    "internalType": "address",
                    "name": "owner",
                    "type": "address"
                },
                {
                    "indexed": true,
                    "internalType": "address",
                    "name": "spender",
                    "type": "address"
                },
                {
                    "indexed": false,
                    "internalType": "uint256",
                    "name": "value",
                    "type": "uint256"
                }
            ],
            "name": "Approval",
            "type": "event"
        },
        {
            "anonymous": false,
            "inputs": [
                {
                    "indexed": true,
                    "internalType": "address",
                    "name": "burner",
                    "type": "address"
                },
                {
                    "indexed": false,
                    "internalType": "uint256",
                    "name": "value",
                    "type": "uint256"
                }
            ],
            "name": "Burn",
            "type": "event"
        },
        {
            "anonymous": false,
            "inputs": [
                {
                    "indexed": true,
                    "internalType": "address",
                    "name": "from",
                    "type": "address"
                },
                {
                    "indexed": true,
                    "internalType": "address",
                    "name": "to",
                    "type": "address"
                },
                {
                    "indexed": false,
                    "internalType": "uint256",
                    "name": "value",
                    "type": "uint256"
                }
            ],
            "name": "Transfer",
            "type": "event"
        },
        {
            "inputs": [
                {
                    "internalType": "address",
                    "name": "",
                    "type": "address"
                },
                {
                    "internalType": "address",
                    "name": "",
                    "type": "address"
                }
            ],
            "name": "allowance",
            "outputs": [
                {
                    "internalType": "uint256",
                    "name": "",
                    "type": "uint256"
                }
            ],
            "stateMutability": "view",
            "type": "function"
        },
        {
            "inputs": [
                {
                    "internalType": "address",
                    "name": "_spender",
                    "type": "address"
                },
                {
                    "internalType": "uint256",
                    "name": "_value",
                    "type": "uint256"
                }
            ],
            "name": "approve",
            "outputs": [
                {
                    "internalType": "bool",
                    "name": "success",
                    "type": "bool"
                }
            ],
            "stateMutability": "nonpayable",
            "type": "function"
        },
        {
            "inputs": [
                {
                    "internalType": "address",
                    "name": "",
                    "type": "address"
                }
            ],
            "name": "balanceOf",
            "outputs": [
                {
                    "internalType": "uint256",
                    "name": "",
                    "type": "uint256"
                }
            ],
            "stateMutability": "view",
            "type": "function"
        },
        {
            "inputs": [
                {
                    "internalType": "uint256",
                    "name": "_value",
                    "type": "uint256"
                }
            ],
            "name": "burn",
            "outputs": [
                {
                    "internalType": "bool",
                    "name": "success",
                    "type": "bool"
                }
            ],
            "stateMutability": "nonpayable",
            "type": "function"
        },
        {
            "inputs": [],
            "name": "name",
            "outputs": [
                {
                    "internalType": "string",
                    "name": "",
                    "type": "string"
                }
            ],
            "stateMutability": "view",
            "type": "function"
        },
        {
            "inputs": [],
            "name": "symbol",
            "outputs": [
                {
                    "internalType": "string",
                    "name": "",
                    "type": "string"
                }
            ],
            "stateMutability": "view",
            "type": "function"
        },
        {
            "inputs": [],
            "name": "totalSupply",
            "outputs": [
                {
                    "internalType": "uint256",
                    "name": "",
                    "type": "uint256"
                }
            ],
            "stateMutability": "view",
            "type": "function"
        },
        {
            "inputs": [
                {
                    "internalType": "address",
                    "name": "_to",
                    "type": "address"
                },
                {
                    "internalType": "uint256",
                    "name": "_value",
                    "type": "uint256"
                }
            ],
            "name": "transfer",
            "outputs": [
                {
                    "internalType": "bool",
                    "name": "success",
                    "type": "bool"
                }
            ],
            "stateMutability": "nonpayable",
            "type": "function"
        },
        {
            "inputs": [
                {
                    "internalType": "address",
                    "name": "_from",
                    "type": "address"
                },
                {
                    "internalType": "address",
                    "name": "_to",
                    "type": "address"
                },
                {
                    "internalType": "uint256",
                    "name": "_value",
                    "type": "uint256"
                }
            ],
            "name": "transferFrom",
            "outputs": [
                {
                    "internalType": "bool",
                    "name": "success",
                    "type": "bool"
                }
            ],
            "stateMutability": "nonpayable",
            "type": "function"
        }
    ],
    "bytecode": "0x60806040523480156200001157600080fd5b5060405162001439380380620014398339818101604052810190620000379190620001f6565b82600090805190602001906200004f929190620000bd565b50816001908051906020019062000068929190620000bd565b508060028190555080600360003373ffffffffffffffffffffffffffffffffffffffff1673ffffffffffffffffffffffffffffffffffffffff16815260200190815260200160002081905550505050620003d3565b828054620000cb9062000325565b90600052602060002090601f016020900481019282620000ef57600085556200013b565b82601f106200010a57805160ff19168380011785556200013b565b828001600101855582156200013b579182015b828111156200013a5782518255916020019190600101906200011d565b5b5090506200014a91906200014e565b5090565b5b80821115620001695760008160009055506001016200014f565b5090565b6000620001846200017e84620002b2565b6200027e565b9050828152602081018484840111156200019d57600080fd5b620001aa848285620002ef565b509392505050565b600082601f830112620001c457600080fd5b8151620001d68482602086016200016d565b91505092915050565b600081519050620001f081620003b9565b92915050565b6000806000606084860312156200020c57600080fd5b600084015167ffffffffffffffff8111156200022757600080fd5b6200023586828701620001b2565b935050602084015167ffffffffffffffff8111156200025357600080fd5b6200026186828701620001b2565b92505060406200027486828701620001df565b9150509250925092565b6000604051905081810181811067ffffffffffffffff82111715620002a857620002a76200038a565b5b8060405250919050565b600067ffffffffffffffff821115620002d057620002cf6200038a565b5b601f19601f8301169050602081019050919050565b6000819050919050565b60005b838110156200030f578082015181840152602081019050620002f2565b838111156200031f576000848401525b50505050565b600060028204905060018216806200033e57607f821691505b602082108114156200035557620003546200035b565b5b50919050565b7f4e487b7100000000000000000000000000000000000000000000000000000000600052602260045260246000fd5b7f4e487b7100000000000000000000000000000000000000000000000000000000600052604160045260246000fd5b620003c481620002e5565b8114620003d057600080fd5b50565b61105680620003e36000396000f3fe608060405234801561001057600080fd5b50600436106100935760003560e01c806342966c681161006657806342966c681461013457806370a082311461016457806395d89b4114610194578063a9059cbb146101b2578063dd62ed3e146101e257610093565b806306fdde0314610098578063095ea7b3146100b657806318160ddd146100e657806323b872dd14610104575b600080fd5b6100a0610212565b6040516100ad9190610d93565b60405180910390f35b6100d060048036038101906100cb9190610bfc565b6102a0565b6040516100dd9190610d78565b60405180910390f35b6100ee610392565b6040516100fb9190610e15565b60405180910390f35b61011e60048036038101906101199190610bad565b610398565b60405161012b9190610d78565b60405180910390f35b61014e60048036038101906101499190610c38565b6106fa565b60405161015b9190610d78565b60405180910390f35b61017e60048036038101906101799190610b48565b610844565b60405161018b9190610e15565b60405180910390f35b61019c61085c565b6040516101a99190610d93565b60405180910390f35b6101cc60048036038101906101c79190610bfc565b6108ea565b6040516101d99190610d78565b60405180910390f35b6101fc60048036038101906101f79190610b71565b610af9565b6040516102099190610e15565b60405180910390f35b6000805461021f90610f51565b80601f016020809104026020016040519081016040528092919081815260200182805461024b90610f51565b80156102985780601f1061026d57610100808354040283529160200191610298565b820191906000526020600020905b81548152906001019060200180831161027b57829003601f168201915b505050505081565b600081600460003373ffffffffffffffffffffffffffffffffffffffff1673ffffffffffffffffffffffffffffffffffffffff16815260200190815260200160002060008573ffffffffffffffffffffffffffffffffffffffff1673ffffffffffffffffffffffffffffffffffffffff168152602001908152602001600020819055508273ffffffffffffffffffffffffffffffffffffffff163373ffffffffffffffffffffffffffffffffffffffff167f8c5be1e5ebec7d5bd14f71427d1e84f3dd0314c0f7b2291e5b200ac8c7c3b925846040516103809190610e15565b60405180910390a36001905092915050565b60025481565b600081600360008673ffffffffffffffffffffffffffffffffffffffff1673ffffffffffffffffffffffffffffffffffffffff16815260200190815260200160002054101561041c576040517f08c379a000000000000000000000000000000000000000000000000000000000815260040161041390610dd5565b60405180910390fd5b81600460008673ffffffffffffffffffffffffffffffffffffffff1673ffffffffffffffffffffffffffffffffffffffff16815260200190815260200160002060003373ffffffffffffffffffffffffffffffffffffffff1673ffffffffffffffffffffffffffffffffffffffff1681526020019081526020016000205410156104db576040517f08c379a00000000000000000000000000000000000000000000000000000000081526004016104d290610db5565b60405180910390fd5b600073ffffffffffffffffffffffffffffffffffffffff168373ffffffffffffffffffffffffffffffffffffffff16141561054b576040517f08c379a000000000000000000000000000000000000000000000000000000000815260040161054290610df5565b60405180910390fd5b81600360008673ffffffffffffffffffffffffffffffffffffffff1673ffffffffffffffffffffffffffffffffffffffff168152602001908152602001600020600082825461059a9190610ea2565b9250508190555081600360008573ffffffffffffffffffffffffffffffffffffffff1673ffffffffffffffffffffffffffffffffffffffff16815260200190815260200160002060008282546105f09190610e4c565b9250508190555081600460008673ffffffffffffffffffffffffffffffffffffffff1673ffffffffffffffffffffffffffffffffffffffff16815260200190815260200160002060003373ffffffffffffffffffffffffffffffffffffffff1673ffffffffffffffffffffffffffffffffffffffff16815260200190815260200160002060008282546106839190610ea2565b925050819055508273ffffffffffffffffffffffffffffffffffffffff168473ffffffffffffffffffffffffffffffffffffffff167fddf252ad1be2c89b69c2b068fc378daa952ba7f163c4a11628f55a4df523b3ef846040516106e79190610e15565b60405180910390a3600190509392505050565b600081600360003373ffffffffffffffffffffffffffffffffffffffff1673ffffffffffffffffffffffffffffffffffffffff16815260200190815260200160002054101561077e576040517f08c379a000000000000000000000000000000000000000000000000000000000815260040161077590610dd5565b60405180910390fd5b81600360003373ffffffffffffffffffffffffffffffffffffffff1673ffffffffffffffffffffffffffffffffffffffff16815260200190815260200160002060008282546107cd9190610ea2565b9250508190555081600260008282546107e69190610ea2565b925050819055503373ffffffffffffffffffffffffffffffffffffffff167fcc16f5dbb4873280815c1ee09dbd06736cffcc184412cf7a71a0fdb75d397ca5836040516108339190610e15565b60405180910390a260019050919050565b60036020528060005260406000206000915090505481565b6001805461086990610f51565b80601f016020809104026020016040519081016040528092919081815260200182805461089590610f51565b80156108e25780601f106108b7576101008083540402835291602001916108e2565b820191906000526020600020905b8154815290600101906020018083116108c557829003601f168201915b505050505081565b600081600360003373ffffffffffffffffffffffffffffffffffffffff1673ffffffffffffffffffffffffffffffffffffffff16815260200190815260200160002054101561096e576040517f08c379a000000000000000000000000000000000000000000000000000000000815260040161096590610dd5565b60405180910390fd5b600073ffffffffffffffffffffffffffffffffffffffff168373ffffffffffffffffffffffffffffffffffffffff1614156109de576040517f08c379a00000000000000000000000000000000000000000000000000000000081526004016109d590610df5565b60405180910390fd5b81600360003373ffffffffffffffffffffffffffffffffffffffff1673ffffffffffffffffffffffffffffffffffffffff1681526020019081526020016000206000828254610a2d9190610ea2565b9250508190555081600360008573ffffffffffffffffffffffffffffffffffffffff1673ffffffffffffffffffffffffffffffffffffffff1681526020019081526020016000206000828254610a839190610e4c565b925050819055508273ffffffffffffffffffffffffffffffffffffffff163373ffffffffffffffffffffffffffffffffffffffff167fddf252ad1be2c89b69c2b068fc378daa952ba7f163c4a11628f55a4df523b3ef84604051610ae79190610e15565b60405180910390a36001905092915050565b6004602052816000526040600020602052806000526040600020600091509150505481565b600081359050610b2d81610ff2565b92915050565b600081359050610b4281611009565b92915050565b600060208284031215610b5a57600080fd5b6000610b6884828501610b1e565b91505092915050565b60008060408385031215610b8457600080fd5b6000610b9285828601610b1e565b9250506020610ba385828601610b1e565b9150509250929050565b600080600060608486031215610bc257600080fd5b6000610bd086828701610b1e565b9350506020610be186828701610b1e565b9250506040610bf286828701610b33565b9150509250925092565b60008060408385031215610c0f57600080fd5b6000610c1d85828601610b1e565b9250506020610c2e85828601610b33565b9150509250929050565b600060208284031215610c4a57600080fd5b6000610c5884828501610b33565b91505092915050565b610c6a81610ee8565b82525050565b6000610c7b82610e30565b610c858185610e3b565b9350610c95818560208601610f1e565b610c9e81610fe1565b840191505092915050565b6000610cb6601683610e3b565b91507f496e73756666696369656e7420616c6c6f77616e6365000000000000000000006000830152602082019050919050565b6000610cf6601483610e3b565b91507f496e73756666696369656e742062616c616e63650000000000000000000000006000830152602082019050919050565b6000610d36601983610e3b565b91507f496e76616c696420726563697069656e742061646472657373000000000000006000830152602082019050919050565b610d7281610f14565b82525050565b6000602082019050610d8d6000830184610c61565b92915050565b60006020820190508181036000830152610dad8184610c70565b905092915050565b60006020820190508181036000830152610dce81610ca9565b9050919050565b60006020820190508181036000830152610dee81610ce9565b9050919050565b60006020820190508181036000830152610e0e81610d29565b9050919050565b6000602082019050610e2a6000830184610d69565b92915050565b600081519050919050565b600082825260208201905092915050565b6000610e5782610f14565b9150610e6283610f14565b9250827fffffffffffffffffffffffffffffffffffffffffffffffffffffffffffffffff03821115610e9757610e96610f83565b5b828201905092915050565b6000610ead82610f14565b9150610eb883610f14565b925082821015610ecb57610eca610f83565b5b828203905092915050565b6000610ee182610ef4565b9050919050565b60008115159050919050565b600073ffffffffffffffffffffffffffffffffffffffff82169050919050565b6000819050919050565b60005b83811015610f3c578082015181840152602081019050610f21565b83811115610f4b576000848401525b50505050565b60006002820490506001821680610f6957607f821691505b60208210811415610f7d57610f7c610fb2565b5b50919050565b7f4e487b7100000000000000000000000000000000000000000000000000000000600052601160045260246000fd5b7f4e487b7100000000000000000000000000000000000000000000000000000000600052602260045260246000fd5b6000601f19601f8301169050919050565b610ffb81610ed6565b811461100657600080fd5b50565b61101281610f14565b811461101d57600080fd5b5056fea26469706673582212207c1ee5de28fd2e68444098afe25ddb22c9985f2390e5e5eb5eb02b819380de7264736f6c63430008000033",
    "linkReferences": {},
    "deployedLinkReferences": {}
}