{
  "_format": "hh-sol-artifact-1",
  "contractName": "EnovateBank",
  "sourceName": "contracts/EnovateBank.sol",
  "abi": [
    {
      "inputs": [
        {
          "internalType": "contract EnovateToken",
          "name": "_enovateToken",
          "type": "address"
        }
      ],
      "stateMutability": "nonpayable",
      "type": "constructor"
    },
    {
      "anonymous": false,
      "inputs": [
        {
          "indexed": true,
          "internalType": "address",
          "name": "user",
          "type": "address"
        },
        {
          "indexed": false,
          "internalType": "uint256",
          "name": "collateralEtherAmount",
          "type": "uint256"
        },
        {
          "indexed": false,
          "internalType": "uint256",
          "name": "borrowedTokenAmount",
          "type": "uint256"
        }
      ],
      "name": "Borrow",
      "type": "event"
    },
    {
      "anonymous": false,
      "inputs": [
        {
          "indexed": true,
          "internalType": "address",
          "name": "user",
          "type": "address"
        },
        {
          "indexed": false,
          "internalType": "uint256",
          "name": "etherAmount",
          "type": "uint256"
        },
        {
          "indexed": false,
          "internalType": "uint256",
          "name": "timeStart",
          "type": "uint256"
        }
      ],
      "name": "Deposit",
      "type": "event"
    },
    {
      "anonymous": false,
      "inputs": [
        {
          "indexed": true,
          "internalType": "address",
          "name": "user",
          "type": "address"
        },
        {
          "indexed": false,
          "internalType": "uint256",
          "name": "fee",
          "type": "uint256"
        }
      ],
      "name": "PayOff",
      "type": "event"
    },
    {
      "anonymous": false,
      "inputs": [
        {
          "indexed": true,
          "internalType": "address",
          "name": "user",
          "type": "address"
        },
        {
          "indexed": false,
          "internalType": "uint256",
          "name": "tokenAmount",
          "type": "uint256"
        }
      ],
      "name": "TokenBurn",
      "type": "event"
    },
    {
      "anonymous": false,
      "inputs": [
        {
          "indexed": true,
          "internalType": "address",
          "name": "user",
          "type": "address"
        },
        {
          "indexed": false,
          "internalType": "uint256",
          "name": "etherAmount",
          "type": "uint256"
        }
      ],
      "name": "Withdraw",
      "type": "event"
    },
    {
      "inputs": [
        {
          "internalType": "address",
          "name": "",
          "type": "address"
        }
      ],
      "name": "TotalInterest",
      "outputs": [
        {
          "internalType": "uint256",
          "name": "",
          "type": "uint256"
        }
      ],
      "stateMutability": "view",
      "type": "function"
    },
    {
      "inputs": [],
      "name": "borrow",
      "outputs": [],
      "stateMutability": "payable",
      "type": "function"
    },
    {
      "inputs": [
        {
          "internalType": "address",
          "name": "",
          "type": "address"
        }
      ],
      "name": "collateralEther",
      "outputs": [
        {
          "internalType": "uint256",
          "name": "",
          "type": "uint256"
        }
      ],
      "stateMutability": "view",
      "type": "function"
    },
    {
      "inputs": [],
      "name": "depositETH",
      "outputs": [],
      "stateMutability": "payable",
      "type": "function"
    },
    {
      "inputs": [
        {
          "internalType": "address",
          "name": "",
          "type": "address"
        }
      ],
      "name": "depositStart",
      "outputs": [
        {
          "internalType": "uint256",
          "name": "",
          "type": "uint256"
        }
      ],
      "stateMutability": "view",
      "type": "function"
    },
    {
      "inputs": [
        {
          "internalType": "address",
          "name": "",
          "type": "address"
        }
      ],
      "name": "etherBalanceOf",
      "outputs": [
        {
          "internalType": "uint256",
          "name": "",
          "type": "uint256"
        }
      ],
      "stateMutability": "view",
      "type": "function"
    },
    {
      "inputs": [],
      "name": "getAddresses",
      "outputs": [
        {
          "internalType": "address[]",
          "name": "",
          "type": "address[]"
        }
      ],
      "stateMutability": "view",
      "type": "function"
    },
    {
      "inputs": [],
      "name": "getContractEtherBalance",
      "outputs": [
        {
          "internalType": "uint256",
          "name": "",
          "type": "uint256"
        }
      ],
      "stateMutability": "view",
      "type": "function"
    },
    {
      "inputs": [
        {
          "internalType": "address",
          "name": "userAdd",
          "type": "address"
        }
      ],
      "name": "getETHBalanceOf",
      "outputs": [
        {
          "internalType": "uint256",
          "name": "",
          "type": "uint256"
        }
      ],
      "stateMutability": "view",
      "type": "function"
    },
    {
      "inputs": [
        {
          "internalType": "address",
          "name": "Useradd",
          "type": "address"
        }
      ],
      "name": "getEnovateToken",
      "outputs": [
        {
          "internalType": "uint256",
          "name": "",
          "type": "uint256"
        }
      ],
      "stateMutability": "view",
      "type": "function"
    },
    {
      "inputs": [
        {
          "internalType": "address",
          "name": "userAdd",
          "type": "address"
        }
      ],
      "name": "getTotalInterest",
      "outputs": [
        {
          "internalType": "uint256",
          "name": "",
          "type": "uint256"
        }
      ],
      "stateMutability": "view",
      "type": "function"
    },
    {
      "inputs": [
        {
          "internalType": "address",
          "name": "",
          "type": "address"
        }
      ],
      "name": "isBorrowed",
      "outputs": [
        {
          "internalType": "bool",
          "name": "",
          "type": "bool"
        }
      ],
      "stateMutability": "view",
      "type": "function"
    },
    {
      "inputs": [
        {
          "internalType": "address",
          "name": "",
          "type": "address"
        }
      ],
      "name": "isDeposited",
      "outputs": [
        {
          "internalType": "bool",
          "name": "",
          "type": "bool"
        }
      ],
      "stateMutability": "view",
      "type": "function"
    },
    {
      "inputs": [],
      "name": "owner",
      "outputs": [
        {
          "internalType": "address",
          "name": "",
          "type": "address"
        }
      ],
      "stateMutability": "view",
      "type": "function"
    },
    {
      "inputs": [],
      "name": "payoffToken",
      "outputs": [],
      "stateMutability": "nonpayable",
      "type": "function"
    },
    {
      "inputs": [
        {
          "internalType": "address",
          "name": "",
          "type": "address"
        }
      ],
      "name": "totalDeposit",
      "outputs": [
        {
          "internalType": "uint256",
          "name": "",
          "type": "uint256"
        }
      ],
      "stateMutability": "view",
      "type": "function"
    },
    {
      "inputs": [
        {
          "internalType": "address",
          "name": "",
          "type": "address"
        }
      ],
      "name": "totalTokensMinted",
      "outputs": [
        {
          "internalType": "uint256",
          "name": "",
          "type": "uint256"
        }
      ],
      "stateMutability": "view",
      "type": "function"
    },
    {
      "inputs": [
        {
          "internalType": "uint256",
          "name": "_amount",
          "type": "uint256"
        }
      ],
      "name": "withdrawETH",
      "outputs": [],
      "stateMutability": "nonpayable",
      "type": "function"
    }
  ],
  "bytecode": "0x60806040523480156200001157600080fd5b5060405162001ff038038062001ff08339818101604052810190620000379190620000d6565b336000806101000a81548173ffffffffffffffffffffffffffffffffffffffff021916908373ffffffffffffffffffffffffffffffffffffffff16021790555080600160006101000a81548173ffffffffffffffffffffffffffffffffffffffff021916908373ffffffffffffffffffffffffffffffffffffffff1602179055505062000164565b600081519050620000d0816200014a565b92915050565b600060208284031215620000e957600080fd5b6000620000f984828501620000bf565b91505092915050565b60006200010f826200012a565b9050919050565b6000620001238262000102565b9050919050565b600073ffffffffffffffffffffffffffffffffffffffff82169050919050565b620001558162000116565b81146200016157600080fd5b50565b611e7c80620001746000396000f3fe6080604052600436106101095760003560e01c806387299fc911610095578063e19f54f311610064578063e19f54f3146103f1578063e68d356914610408578063f14210a614610412578063f6326fb31461043b578063ff87930a1461044557610109565b806387299fc9146103215780638da5cb5b1461035e578063a39fac1214610389578063cdebd932146103b457610109565b806330e76dae116100dc57806330e76dae14610202578063511c56611461022d5780635a81a7d31461026a57806373732024146102a757806375a40d2a146102e457610109565b80631084e8121461010e57806311e934db1461014b578063179fc99f1461018857806322ba08d6146101c5575b600080fd5b34801561011a57600080fd5b50610135600480360381019061013091906116e4565b610482565b6040516101429190611bb8565b60405180910390f35b34801561015757600080fd5b50610172600480360381019061016d91906116e4565b61049a565b60405161017f9190611bb8565b60405180910390f35b34801561019457600080fd5b506101af60048036038101906101aa91906116e4565b61054e565b6040516101bc9190611bb8565b60405180910390f35b3480156101d157600080fd5b506101ec60048036038101906101e791906116e4565b610566565b6040516101f99190611bb8565b60405180910390f35b34801561020e57600080fd5b5061021761057e565b6040516102249190611bb8565b60405180910390f35b34801561023957600080fd5b50610254600480360381019061024f91906116e4565b610586565b6040516102619190611bb8565b60405180910390f35b34801561027657600080fd5b50610291600480360381019061028c91906116e4565b6105cf565b60405161029e9190611bb8565b60405180910390f35b3480156102b357600080fd5b506102ce60048036038101906102c991906116e4565b610618565b6040516102db9190611abd565b60405180910390f35b3480156102f057600080fd5b5061030b600480360381019061030691906116e4565b610638565b6040516103189190611bb8565b60405180910390f35b34801561032d57600080fd5b50610348600480360381019061034391906116e4565b610650565b6040516103559190611bb8565b60405180910390f35b34801561036a57600080fd5b50610373610668565b6040516103809190611a20565b60405180910390f35b34801561039557600080fd5b5061039e61068c565b6040516103ab9190611a9b565b60405180910390f35b3480156103c057600080fd5b506103db60048036038101906103d691906116e4565b61071a565b6040516103e89190611abd565b60405180910390f35b3480156103fd57600080fd5b5061040661073a565b005b610410610b12565b005b34801561041e57600080fd5b5061043960048036038101906104349190611736565b610e2d565b005b610443611117565b005b34801561045157600080fd5b5061046c600480360381019061046791906116e4565b61135d565b6040516104799190611bb8565b60405180910390f35b60066020528060005260406000206000915090505481565b6000600160009054906101000a900473ffffffffffffffffffffffffffffffffffffffff1673ffffffffffffffffffffffffffffffffffffffff166370a08231836040518263ffffffff1660e01b81526004016104f79190611a20565b60206040518083038186803b15801561050f57600080fd5b505afa158015610523573d6000803e3d6000fd5b505050506040513d601f19601f82011682018060405250810190610547919061175f565b9050919050565b60046020528060005260406000206000915090505481565b60076020528060005260406000206000915090505481565b600047905090565b6000600360008373ffffffffffffffffffffffffffffffffffffffff1673ffffffffffffffffffffffffffffffffffffffff168152602001908152602001600020549050919050565b6000600460008373ffffffffffffffffffffffffffffffffffffffff1673ffffffffffffffffffffffffffffffffffffffff168152602001908152602001600020549050919050565b60086020528060005260406000206000915054906101000a900460ff1681565b60056020528060005260406000206000915090505481565b60036020528060005260406000206000915090505481565b60008054906101000a900473ffffffffffffffffffffffffffffffffffffffff1681565b6060600a80548060200260200160405190810160405280929190818152602001828054801561071057602002820191906000526020600020905b8160009054906101000a900473ffffffffffffffffffffffffffffffffffffffff1673ffffffffffffffffffffffffffffffffffffffff16815260200190600101908083116106c6575b5050505050905090565b60096020528060005260406000206000915054906101000a900460ff1681565b600960003373ffffffffffffffffffffffffffffffffffffffff1673ffffffffffffffffffffffffffffffffffffffff16815260200190815260200160002060009054906101000a900460ff166107c6576040517f08c379a00000000000000000000000000000000000000000000000000000000081526004016107bd90611b38565b60405180910390fd5b60006064605f600760003373ffffffffffffffffffffffffffffffffffffffff1673ffffffffffffffffffffffffffffffffffffffff168152602001908152602001600020546108169190611ccd565b6108209190611c9c565b9050600160009054906101000a900473ffffffffffffffffffffffffffffffffffffffff1673ffffffffffffffffffffffffffffffffffffffff166323b872dd3330846040518463ffffffff1660e01b815260040161088193929190611a3b565b602060405180830381600087803b15801561089b57600080fd5b505af11580156108af573d6000803e3d6000fd5b505050506040513d601f19601f820116820180604052508101906108d3919061170d565b6108dc57600080fd5b60006064605a600560003373ffffffffffffffffffffffffffffffffffffffff1673ffffffffffffffffffffffffffffffffffffffff1681526020019081526020016000205461092c9190611ccd565b6109369190611c9c565b905081600760003373ffffffffffffffffffffffffffffffffffffffff1673ffffffffffffffffffffffffffffffffffffffff16815260200190815260200160002060008282546109879190611d27565b925050819055503373ffffffffffffffffffffffffffffffffffffffff166108fc829081150290604051600060405180830381858888f193505050501580156109d4573d6000803e3d6000fd5b506000600560003373ffffffffffffffffffffffffffffffffffffffff1673ffffffffffffffffffffffffffffffffffffffff168152602001908152602001600020819055506000600960003373ffffffffffffffffffffffffffffffffffffffff1673ffffffffffffffffffffffffffffffffffffffff16815260200190815260200160002060006101000a81548160ff0219169083151502179055503373ffffffffffffffffffffffffffffffffffffffff167ffd9bbd044fa427970e4d882ebbb4a89ce422dc29b23f2777a14a93ecdf42c64482604051610ab89190611bb8565b60405180910390a23373ffffffffffffffffffffffffffffffffffffffff167fab85194d35c4ea153d0b51f3a304d1d22cb8023e499a6503fb6c28c5864ae90e83604051610b069190611bb8565b60405180910390a25050565b600073ffffffffffffffffffffffffffffffffffffffff163373ffffffffffffffffffffffffffffffffffffffff1614158015610b4f5750600034115b610b8e576040517f08c379a0000000000000000000000000000000000000000000000000000000008152600401610b8590611b18565b60405180910390fd5b60001515600960003373ffffffffffffffffffffffffffffffffffffffff1673ffffffffffffffffffffffffffffffffffffffff16815260200190815260200160002060009054906101000a900460ff16151514610c21576040517f08c379a0000000000000000000000000000000000000000000000000000000008152600401610c1890611b78565b60405180910390fd5b6000606434610c309190611ccd565b90506000819050600160009054906101000a900473ffffffffffffffffffffffffffffffffffffffff1673ffffffffffffffffffffffffffffffffffffffff1663a9059cbb33836040518363ffffffff1660e01b8152600401610c94929190611a72565b602060405180830381600087803b158015610cae57600080fd5b505af1158015610cc2573d6000803e3d6000fd5b505050506040513d601f19601f82011682018060405250810190610ce6919061170d565b5034600560003373ffffffffffffffffffffffffffffffffffffffff1673ffffffffffffffffffffffffffffffffffffffff168152602001908152602001600020819055506001600960003373ffffffffffffffffffffffffffffffffffffffff1673ffffffffffffffffffffffffffffffffffffffff16815260200190815260200160002060006101000a81548160ff02191690831515021790555080600760003373ffffffffffffffffffffffffffffffffffffffff1673ffffffffffffffffffffffffffffffffffffffff1681526020019081526020016000206000828254610dd29190611c46565b925050819055503373ffffffffffffffffffffffffffffffffffffffff167fe1979fe4c35e0cef342fef5668e2c8e7a7e9f5d5d1ca8fee0ac6c427fa4153af3483604051610e21929190611bd3565b60405180910390a25050565b60011515600860003373ffffffffffffffffffffffffffffffffffffffff1673ffffffffffffffffffffffffffffffffffffffff16815260200190815260200160002060009054906101000a900460ff16151514610ec0576040517f08c379a0000000000000000000000000000000000000000000000000000000008152600401610eb790611ad8565b60405180910390fd5b80600460003373ffffffffffffffffffffffffffffffffffffffff1673ffffffffffffffffffffffffffffffffffffffff168152602001908152602001600020541015610f42576040517f08c379a0000000000000000000000000000000000000000000000000000000008152600401610f3990611b58565b60405180910390fd5b610f4b33611375565b80600460003373ffffffffffffffffffffffffffffffffffffffff1673ffffffffffffffffffffffffffffffffffffffff16815260200190815260200160002054610f969190611d27565b600460003373ffffffffffffffffffffffffffffffffffffffff1673ffffffffffffffffffffffffffffffffffffffff168152602001908152602001600020819055506000600460003373ffffffffffffffffffffffffffffffffffffffff1673ffffffffffffffffffffffffffffffffffffffff1681526020019081526020016000205411611079576000600860003373ffffffffffffffffffffffffffffffffffffffff1673ffffffffffffffffffffffffffffffffffffffff16815260200190815260200160002060006101000a81548160ff0219169083151502179055505b60003390508073ffffffffffffffffffffffffffffffffffffffff166108fc839081150290604051600060405180830381858888f193505050501580156110c4573d6000803e3d6000fd5b503373ffffffffffffffffffffffffffffffffffffffff167f884edad9ce6fa2440d8a54cc123490eb96d2768479d49ff9c7366125a94243648360405161110b9190611bb8565b60405180910390a25050565b6000341161115a576040517f08c379a000000000000000000000000000000000000000000000000000000000815260040161115190611b98565b60405180910390fd5b600034905080600460003373ffffffffffffffffffffffffffffffffffffffff1673ffffffffffffffffffffffffffffffffffffffff16815260200190815260200160002060008282546111ae9190611c46565b9250508190555042600260003373ffffffffffffffffffffffffffffffffffffffff1673ffffffffffffffffffffffffffffffffffffffff1681526020019081526020016000208190555080600660003373ffffffffffffffffffffffffffffffffffffffff1673ffffffffffffffffffffffffffffffffffffffff16815260200190815260200160002060008282546112489190611c46565b925050819055506001600860003373ffffffffffffffffffffffffffffffffffffffff1673ffffffffffffffffffffffffffffffffffffffff16815260200190815260200160002060006101000a81548160ff021916908315150217905550600a339080600181540180825580915050600190039060005260206000200160009091909190916101000a81548173ffffffffffffffffffffffffffffffffffffffff021916908373ffffffffffffffffffffffffffffffffffffffff1602179055503373ffffffffffffffffffffffffffffffffffffffff167f90890809c654f11d6e72a28fa60149770a0d11ec6c92319d6ceb2bb0a4ea1a158242604051611352929190611bd3565b60405180910390a250565b60026020528060005260406000206000915090505481565b6000600190506000600460008473ffffffffffffffffffffffffffffffffffffffff1673ffffffffffffffffffffffffffffffffffffffff1681526020019081526020016000205490506000600460008573ffffffffffffffffffffffffffffffffffffffff1673ffffffffffffffffffffffffffffffffffffffff168152602001908152602001600020541415611442576040517f08c379a000000000000000000000000000000000000000000000000000000000815260040161143990611af8565b60405180910390fd5b6000600260008573ffffffffffffffffffffffffffffffffffffffff1673ffffffffffffffffffffffffffffffffffffffff168152602001908152602001600020544261148f9190611d27565b905060008184846114a09190611ccd565b6114aa9190611ccd565b9050600160009054906101000a900473ffffffffffffffffffffffffffffffffffffffff1673ffffffffffffffffffffffffffffffffffffffff1663a9059cbb33836040518363ffffffff1660e01b8152600401611509929190611a72565b602060405180830381600087803b15801561152357600080fd5b505af1158015611537573d6000803e3d6000fd5b505050506040513d601f19601f8201168201806040525081019061155b919061170d565b5080600360008773ffffffffffffffffffffffffffffffffffffffff1673ffffffffffffffffffffffffffffffffffffffff16815260200190815260200160002060008282546115ab9190611c46565b925050819055506000600460003373ffffffffffffffffffffffffffffffffffffffff1673ffffffffffffffffffffffffffffffffffffffff168152602001908152602001600020541015611644576000600260003373ffffffffffffffffffffffffffffffffffffffff1673ffffffffffffffffffffffffffffffffffffffff16815260200190815260200160002081905550611689565b42600260003373ffffffffffffffffffffffffffffffffffffffff1673ffffffffffffffffffffffffffffffffffffffff168152602001908152602001600020819055505b5050505050565b60008135905061169f81611e01565b92915050565b6000815190506116b481611e18565b92915050565b6000813590506116c981611e2f565b92915050565b6000815190506116de81611e2f565b92915050565b6000602082840312156116f657600080fd5b600061170484828501611690565b91505092915050565b60006020828403121561171f57600080fd5b600061172d848285016116a5565b91505092915050565b60006020828403121561174857600080fd5b6000611756848285016116ba565b91505092915050565b60006020828403121561177157600080fd5b600061177f848285016116cf565b91505092915050565b600061179483836117a0565b60208301905092915050565b6117a981611d5b565b82525050565b6117b881611d5b565b82525050565b60006117c982611c0c565b6117d38185611c24565b93506117de83611bfc565b8060005b8381101561180f5781516117f68882611788565b975061180183611c17565b9250506001810190506117e2565b5085935050505092915050565b61182581611d6d565b82525050565b6000611838601a83611c35565b91507f4572726f723a206e6f2070726576696f7573206465706f7369740000000000006000830152602082019050919050565b6000611878601483611c35565b91507f6e6f2076616c6964206465706f736974207965740000000000000000000000006000830152602082019050919050565b60006118b8602d83611c35565b91507f4572726f723a20696e76616c696420616464726573732c20616d6f756e742c2060008301527f6f722076616c75652073656e74000000000000000000000000000000000000006020830152604082019050919050565b600061191e601583611c35565b91507f4572726f723a206e6f20616374697665206c6f616e00000000000000000000006000830152602082019050919050565b600061195e601683611c35565b91507f4572726f723a20696e76616c69646520616d6f756e74000000000000000000006000830152602082019050919050565b600061199e601a83611c35565b91507f4572726f723a206c6f616e20616c7265616479206163746976650000000000006000830152602082019050919050565b60006119de601583611c35565b91507f4572726f722c20696e76616c696420616d6f756e7400000000000000000000006000830152602082019050919050565b611a1a81611d99565b82525050565b6000602082019050611a3560008301846117af565b92915050565b6000606082019050611a5060008301866117af565b611a5d60208301856117af565b611a6a6040830184611a11565b949350505050565b6000604082019050611a8760008301856117af565b611a946020830184611a11565b9392505050565b60006020820190508181036000830152611ab581846117be565b905092915050565b6000602082019050611ad2600083018461181c565b92915050565b60006020820190508181036000830152611af18161182b565b9050919050565b60006020820190508181036000830152611b118161186b565b9050919050565b60006020820190508181036000830152611b31816118ab565b9050919050565b60006020820190508181036000830152611b5181611911565b9050919050565b60006020820190508181036000830152611b7181611951565b9050919050565b60006020820190508181036000830152611b9181611991565b9050919050565b60006020820190508181036000830152611bb1816119d1565b9050919050565b6000602082019050611bcd6000830184611a11565b92915050565b6000604082019050611be86000830185611a11565b611bf56020830184611a11565b9392505050565b6000819050602082019050919050565b600081519050919050565b6000602082019050919050565b600082825260208201905092915050565b600082825260208201905092915050565b6000611c5182611d99565b9150611c5c83611d99565b9250827fffffffffffffffffffffffffffffffffffffffffffffffffffffffffffffffff03821115611c9157611c90611da3565b5b828201905092915050565b6000611ca782611d99565b9150611cb283611d99565b925082611cc257611cc1611dd2565b5b828204905092915050565b6000611cd882611d99565b9150611ce383611d99565b9250817fffffffffffffffffffffffffffffffffffffffffffffffffffffffffffffffff0483118215151615611d1c57611d1b611da3565b5b828202905092915050565b6000611d3282611d99565b9150611d3d83611d99565b925082821015611d5057611d4f611da3565b5b828203905092915050565b6000611d6682611d79565b9050919050565b60008115159050919050565b600073ffffffffffffffffffffffffffffffffffffffff82169050919050565b6000819050919050565b7f4e487b7100000000000000000000000000000000000000000000000000000000600052601160045260246000fd5b7f4e487b7100000000000000000000000000000000000000000000000000000000600052601260045260246000fd5b611e0a81611d5b565b8114611e1557600080fd5b50565b611e2181611d6d565b8114611e2c57600080fd5b50565b611e3881611d99565b8114611e4357600080fd5b5056fea2646970667358221220e0e7e9c3d9e66665ae406908f9131c019fcc028214b5f255f5144a114590817264736f6c63430008000033",
  "linkReferences": {},
  "deployedLinkReferences": {}
}